:020000040800F2
:10000000803F002031350008C3D1000805350008C5
:10001000053500080535000805350008000000001A
:100020000000000000000000000000001D36000875
:100030000535000800000000B935000861A100087E
:100040009537000895370008953700089537000860
:100050009537000895370008953700089537000850
:100060009537000895370008953700089537000840
:100070009537000895370008953700089537000830
:100080009537000895370008953700089537000820
:100090009537000895370008953700089537000810
:1000A0009537000895370008953700089537000800
:1000B00095370008953700089537000895370008F0
:1000C00095370008953700089537000895370008E0
:1000D00095370008953700089537000895370008D0
:1000E00095370008953700089537000895370008C0
:1000F00095370008953700089537000895370008B0
:10010000953700089537000895370008953700089F
:10011000953700089537000895370008953700088F
:10012000953700089537000895370008953700087F
:10013000953700089537000895370008953700086F
:10014000953700089537000895370008953700085F
:10015000953700089537000895370008953700084F
:10016000953700089537000895370008953700083F
:10017000953700089537000895370008953700082F
:10018000953700089537000895370008953700081F
:10019000953700089537000895370008953700080F
:1001A00095370008953700089537000895370008FF
:1001B00095370008953700089537000895370008EF
:0401C0009537000867
:1001C40053B94AB9002908BF00281CBF4FF0FF31BA
:1001D4004FF0FF3000F00CB8ADF1080C6DE904CE1F
:1001E40000F008F8DDF804E0DDE9022304B070470C
:1001F400704700BF2DE9F04786468C460846089EA6
:10020400154674461946002B40F0C2808542B2FA66
:1002140082F245D94AB1C2F1200300FA02FC2EFA57
:1002240003F3954043EA0C0C94404FEA154EA8B2F0
:10023400BCFBFEF8230C0EFB18CC08FB00F943EAC8
:100244000C43994528D9EB1808F1FF3704D2994596
:1002540002D9A8F102072B44A3EB0903A4B2B3FB10
:10026400FEFC0EFB1C330CFB00F044EA0344A042EA
:1002740014D92C190CF1FF3304D2A04202D9ACF1E9
:1002840002032C44241A43EA07401EB1D44000233D
:1002940034607360BDE8F0874746DDE76346F1E705
:1002A40092BB431B01214FEA154EAFB2B3FBFEFCD8
:1002B400200C0EFB1C330CFB07F840EA0343984563
:1002C40062D9EB180CF1FF3004D2984502D9ACF195
:1002D40002002B44A3EB0803A4B2B3FBFEFC0EFB09
:1002E4001C330CFB07F744EA0344A7424ED92C19EC
:1002F4000CF1FF3304D2A74202D9ACF102032C441F
:10030400E41B43EA0040C0E7C2F1200320FA03F1F2
:10031400954090402EFA03F303434FEA154EAFB2D3
:10032400B1FBFEFC0EFB1C10190C0CFB07F841EA98
:100334000041884504FA02F422D969180CF1FF300F
:1003440004D2884502D9ACF102002944A1EB08018A
:100354009BB2B1FBFEFC0EFB1C110CFB07F743EA3E
:1003640001439F420ED9EB180CF1FF3104D29F4296
:1003740002D9ACF102012B44DB1B41EA004192E7B4
:100384006046E3E76146F7E76046A3E76346B7E7FD
:10039400834206D916B9002108467BE7C6E900E086
:1003A400F9E7B3FA83F78FB9834201D3724508D8CA
:1003B400BEEB020460EB030301209C461EB900213E
:1003C40068E73846FAE7C6E9004CF8E7C7F1200CBD
:1003D400BB4022FA0CF41C432EFA0CF120FA0CF365
:1003E400B84001434FEA14490EFA07F5B3FBF9F894
:1003F4001FFA84FE09FB18300B0C08FB0EFA43EAC3
:1004040000439A4502FA07F240D9E31808F1FF3095
:1004140004D29A4502D9A8F102002344A3EB0A03AB
:1004240089B2B3FBF9F809FB183308FB0EFE41EA65
:1004340003418E452CD9611808F1FF3304D28E454F
:1004440002D9A8F10203214443EA0040A0FB029828
:10045400A1EB0E014145CE46434602D306D14D459C
:1004640004D2B9EB020E68EB04030138002EA6D0C7
:10047400B5EB0E0261EB030101FA0CFC22FA07F35F
:100484004CEA0303F940C6E9003198E74046C5E762
:100494004346D9E7034613F8012B002AFBD1181A67
:1004A4000138704710B50B4B1968002902460FDD5F
:1004B40009480CF067FE041E08DA11F097F9074B9F
:1004C400074A1B58074801210BF0F9FE204610BDCE
:1004D4000024FBE7F80F0020FC0F00200C000000B4
:1004E40022220108081E010837B50B7805460C4680
:1004F400092B26D8DFE803F0051A25272F254925DF
:100504002550CB693BB1254A0121254803B0BDE8FC
:1005140030400BF0D4BE234B01221A70224A2048EB
:10052400032103B0BDE830400CF09ABCCB691F4AEC
:100534001B4803210BF0C3FE1A4A002313701C4A04
:10054400136003B030BDCB690BB11A4ADCE78B886A
:10055400194A0321D9E7CB690BB1184AD4E78B8830
:10056400174A0F4803210BF0AAFEA388ADF8043004
:1005740001A928460FF0B9FD03460028E1D0114A2D
:10058400074801210BF09BFEDBE7CB690BB10E4A58
:10059400BAE78B880D4ADCE70D4AC0E7312201082F
:1005A400081E010878170020482201085F2201086C
:1005B400F80F00207B22010890220108A5220108DF
:1005C400BA220108CF220108EE22010804230108FF
:1005D4001A2301082DE9F04FC14CC24D8DB000AF74
:1005E400C14ADFF80893032120460CF039FC4FF090
:1005F4000A0A99F80080B8F1000F4FD1BC4EDFF819
:10060400F4B230460FF05AFD012045F60733ABF83B
:100614000000ABF80230B8490BF104020CF0BCFD49
:10062400B64BB364B64BF362102333630423B54A69
:1006340086F85E30B44BF36430468023C6E90E88F6
:10064400C6E91523C6F834B0336586F8248008F06B
:10065400A3FC002800F096806E468AB06A46AB4B35
:100664005361AB4BC2E90630AA4BC2E90835AA4B29
:1006740042F8103F4FF443514346204601F070F8CE
:10068400B54641F2883000210AF0FAFFBAF1010AB6
:10069400AFD199F80030002B00F08F809F4B0026DB
:1006A400EA468AB06A469E49DFF86082C2F814803E
:1006B400C2E90835984BC2E9061642F8103F0023F8
:1006C4004FF44351204601F04BF8D546002E53D148
:1006D400DFF81CA2DFF84CB299F800305BB310F0DD
:1006E40012FE0A220023FFF76BFDC7E902100A205D
:1006F40099F80030002B00F0A480FFF7D3FE002807
:100704005FD050460FF07AFD00285AD06E468AB06A
:100714006A46854BC2F81480C2E906307D4BC2E9B3
:1007240008357D4B42F8103F00234FF443512046D7
:1007340001F016F8B5466E480FF0FDFC754A774B8C
:1007440000286E468AB018BF13466A467749C2F835
:100754001480C2E90835704BC2E9061042F8103F14
:1007640000234FF44351204600F0FAFFB546704A87
:10077400032120460CF074FB00214CF250300AF0A7
:100784007FFF2DE796F824306A4A0BB9B36A1360E9
:1007940001239380684A4FF4FA601360FFF782FEE6
:1007A40010B153480FF02AFD99F80030002B7FF464
:1007B4006DAF4F480FF0E8FC68E7564B6FF0150635
:1007C4006EE750460FF0F5FCC0B110F10B0F22D0CC
:1007D400E9468AB06A46594BC2F81480C2E9063029
:1007E4004C4BC2E908354C4B42F8103F00234FF400
:1007F4004351204600F0B4FFCD469CE750460FF02D
:10080400FDFC40B1E9468AB06A46474BC2F8148001
:10081400C2E90630E4E710F076FDFB6813F10A063E
:10082400BB6843F100037B600A220023FFF7C8FC86
:100834007B68301A63EB0101012871F10001BFF6F6
:1008440057AF002387F820303D4BBB610623DBF80C
:100854001060FB61DBF8083032485B6807F1140173
:1008640098470346002871D0364EFB603046FFF7A8
:1008740011FEFB687E623044303300F8023C30469F
:10088400FFF708FEB86203F031F997F82E30B88507
:1008940023F0030307F11801504687F82E3008F0BF
:1008A400C9FB1C4AC7F80CD0061E8AB01B4B18BFE4
:1008B40013466A462449C2F81480C2E90835164B27
:1008C400C2E9061642F8103F00234FF44351204674
:1008D40000F046FFD7F80CD0002E3FF4FDAE2AE717
:1008E400081E0108000202043323010878170020BF
:1008F40004100020701700204B230108ED040008A9
:100904005823010879170020F917002069230108EA
:10091400752301082D230108050000022A2301087C
:10092400822301086419010891230108BA230108EC
:10093400CA230108FC0F0020F80F00209C230108A3
:10094400A623010880000020AD23010832687B69DA
:100954005340C3F3403387E72DE9F04F91B0840748
:10096400009302F004030293C2F3C20303F10103F0
:10097400DDF86890039205460E46059340F0BA816F
:10098400041D30B1072909D86FF01B0011B0BDE870
:10099400F08F01F00706341DC6F10806009B4FF0E6
:1009A4000008591E4FF0040A4FF0FF330193CDF8AD
:1009B40010804746C34653460DB1009A22600598FD
:1009C400002800F3E8809848009A824203D39748AD
:1009D4008242C0F0E080039AA4EB050E92074FEA2E
:1009E4009E0000F103810F2F00F2B180002D00F072
:1009F400058107F140020DEB020C019A0CF8200C62
:100A04000CF8102C049801300490E7E07A285DD8A3
:100A14004B280ED8472859D829282DD8252852D014
:100A240054D820287AD02338D0F1000B4BEB000B9C
:100A340074E04C382E2849D8DFE800F07048484864
:100A440048484848484848484B484848484848481F
:100A54004859484B4B595959704B6D487048184B7D
:100A6400184848827F4B48484B487F0000204FF08D
:100A7400000B4FF0040A38E02A38C0B2012202FA0F
:100A840000F010EA0E0F49D110F0625C2FD110EA89
:100A9400020B43D06046013C5444B4FBFAF40AFB15
:100AA40004F4002D61D0A3EB050CA4446645FFF4C7
:100AB4006BAF002868D1042B47D159F8043B23605D
:100AC400043404232AE0019A013A01924FF0000B06
:100AD40024E011F8010C6C2834D111F8023C0020F8
:100AE4006C2B8346C5D14FF0080A5346D3E709F16E
:100AF400070929F007090734F9E802AB24F00704D1
:100B040035B106982044B0423FF63EAFC4E900AB8D
:100B140008344FF0000B4FF0080A534611F8010F48
:100B2400002878D0BBF1000F7FF470AF2528F5D1F1
:100B3400019B013301934FF0010B4FF0040AECE7E2
:100B4400584694E700208346A5E7082B02D06FF0AF
:100B540015001BE709F1070929F00709F9E8022341
:100B6400C4E9002308340823D8E768B9042B02D168
:100B740009F10409A4E7082BE9D109F1070929F0CF
:100B8400070909F10809EDE7059A013A059259F8B0
:100B9400042B009210E7039A900720D5A4EB050ECE
:100BA4004FEA9E004FF0010CBEF5007FCFD20F2F0D
:100BB400CDD8F5B107F140020DEB020EC0B2019A97
:100BC4000EF8200C0EF8102CBCF1000F3FF41AAFF5
:100BD40060F07F000EF8200C08F101080137C5F120
:100BE4000802043406924FF6DA7E97E74FF0000CC1
:100BF400DAE7BCF1000F01D00136EFE702980236C4
:100C04000028EBD10098CDE90631FFF743FCDDE97C
:100C140006310644E2E7631BB3F5806F97D23DB912
:100C2400A6F10804E018B1E604180108243A010802
:100C3400029A28609B082B709DF81030C2B1EB70AB
:100C440085F80280B8F1000F05D008A80022C5F18C
:100C5400010C97420ED1C5F101030DF120094FF0AB
:100C6400000A01930DF1300B574512D1601B8DE63C
:100C74006B70E5E710F8013B190608D504EB0C0E80
:100C8400764503F07F03FFF47FAE04F8013B0132A5
:100C9400DFE7B8F1000F03D099F90020002A17DB31
:100CA400029BD3B11AF80B2004F8012B0022019BFC
:100CB400981820448642FFF467AE99F8000004F8BF
:100CC400010B00990392204610F058FD039A144436
:100CD4000AF1010A09F10109C6E799F8002055F85B
:100CE40022300093029B45F822300098FFF7D2FB94
:100CF400421CDCE76FF00D0048E600BF2DE9F04F21
:100D040097B090F802B0DDF880A00593CAF3C00351
:100D1400044602920793894641B9457800780BEB63
:100D2400800020444D4516D8A0EB0409E3780693CF
:100D3400BBF1000F02D01AF0010F15D1069B43BB83
:100D4400029B1BB1059A4946204698474D462846C2
:100D540017B0BDE8F08F461C3046FFF79BFB01300F
:100D6400304409F10109DDE72178626803918B00C1
:100D74000893029B049204EB8108002B40F0E3806B
:100D84004D46474608EB0B0900264F4540D1D84451
:100D940013E01AF0020FD3D02378039398469B00F4
:100DA400089363680493029B04EB8808002B66D1C4
:100DB4004D46BBF1000F3DD15E46069B1AF0050F70
:100DC40008EB43090AF002030CBF4FF0020B4FF08B
:100DD400010B0293C845BAD018F8021B18F8013C5D
:100DE40054F82370954B9F4202D3954B9F4227D3CF
:100DF400079B002B31D004980BF0A7FA68B3914AF3
:100E04000091049B904802210CF03DF8023DE1E77B
:100E140017F8012B54F82200FFF73CFB219B01300B
:100E240033B1229B9E423EBF219B23F8160001361C
:100E34000544AAE71AF004061CBF029ED844BCE786
:100E4400079B23B104980BF080FA0028D7D11AF03D
:100E5400010F05D1A5EB0B05BCE7029B002BB9D014
:100E64003846FFF717FB219B3BB1229B9E423FBFB5
:100E7400219A431C22F8163001360544AAE7BBF137
:100E8400000F64D01AF0040664D05F46002612A84E
:100E94005A46414610F072FC069B5B000A93069B7F
:100EA400D84408EB430309930AF002030B93099B0C
:100EB400434551D163781AF0020F06EB03020CBFCD
:100EC400790800211AF0010FD2B240F08A801AF09A
:100ED400040F14BF3846002004936270A070E170C0
:100EE400059A0899029B20469847051EFFF62FAFE6
:100EF400039B2370049B6370069BE3703946059A39
:100F0400029B84F802B012A89847071EC0F2918091
:100F1400089B059AA9EB0B01C91A0A9B4046C91AFA
:100F2400029B98470028C0F286802F443D184FF05A
:100F340000080DF1380AB04555D30021059A029BEB
:100F44000846984703E75E4600270EA8A0E75E46DA
:100F54005F46A1E737469FE718F8021B374B18F89E
:100F6400015C54F82500984202D3354B984217D3BC
:100F7400079B23B104980BF0E8F9002897D10B9B49
:100F8400CBB907F15803781C0DEB030C16AB53FADD
:100F940080F002370CF8101CFFB200F8105C86E7F2
:100FA400079B2BB104980BF0D0F900287FF47FAF96
:100FB4001AF0010F08D006F15803711C0DEB03065B
:100FC40006F8205CCEB272E71AF0040F3FF46FAF5C
:100FD40007F15803791C0DEB030707F8105CCFB237
:100FE40065E7002078E718F80A308DF8373054F8B0
:100FF4002390219BDBB133F81870059A029B0121E1
:101004000DF137009847002815DB054427B94846F9
:10101400FFF740FA471CBFB2059A029B394648467F
:101024009847002807DB054408F1010883E7219F5E
:10103400E3E73D468BE6054689E600BF0418010850
:10104400243A0108E9230108601D0108014B1860D6
:10105400704700BF0800002080B505460E461746BD
:1010640098460AF025FB034610F0C0FBDFF8189001
:10107400044649F80030424630463946A84754F8F9
:10108400090002F069FA00BF08000000032800B557
:1010940008D910F0ABFB094B09221A504FF0FF306E
:1010A4005DF804FB28235843054BBFF35B8F1B58A3
:1010B400BFF35B8F002BECD00020F1E70C000000A5
:1010C4007010002038B504461546FFF7DFFF0028EE
:1010D4000DDB084A28236343D0184068086015B123
:1010E4000C3313442B6028235C43105938BD002073
:1010F400FCE700BF6810002070B54FF0FF331D48B7
:101104004FF0FF3209F0F6FC1B4B0025BFF35B8F59
:101114001A68BFF35B8F82B10135042D03F12803F4
:10112400F4D110F063FB154B17221A504FF0FF3522
:10113400104809F059FD284670BD28246C43BFF3BC
:101144005B8F53E8000F013043E800010029F8D118
:10115400BFF35B8F0A4E331932515A6004F10C000D
:1011640030440FF0A2FD04F12000304410F09DF84B
:10117400DEE700BF64010020701000200C000000B6
:101184006810002010B40A4B044610462822544329
:101194001A191951506040B1C26832B10C34234459
:1011A40040F2051210BC0BF0CFBA10BC704700BF60
:1011B4006810002030B528231049434308330B44FA
:1011C400BFF35B8F1A68BFF35B8FB2B1BFF35B8F62
:1011D400541E53E8005F954204D143E8004CBCF12F
:1011E400000FF6D1BFF35B8FEAD1012A05D1282382
:1011F40058430A1800230B50536030BD6810002078
:10120400064B1A6842F400721A601A6842F480624B
:101214001A60034B034A1A6000207047003C0240E6
:101224006C0000200024F400034A536823F00203F6
:1012340053600020704700BF002004E02DE9F04710
:10124400DFF85880044607464FF0010914B93846C0
:10125400BDE8F08794FAA4F5B5FA85F509FA05F323
:101264002E0108EB05156FEA030A24EA03042B7B1D
:10127400002BEBD058F806301B694BB946440422C6
:1012840073682846196807EA0A0700F055FADDE78B
:10129400284698470028D9D1F0E700BF681E010806
:1012A40030B51049104889B0002210F073F80F4D82
:1012B4000F4900220023CDE9062300240E23CDE9A3
:1012C4000334CDE901440B4B00944FF4407228469B
:1012D40009F0E8FA084928460FF0CCFC204609B08A
:1012E40030BD00BF0113000870070020E802002091
:1012F40000190020E11500089D240108014809F0A7
:10130400E3BC00BF0C0200202DE9F04780461E48D4
:101314000F460BF017FD064678B300252846BDE8B6
:10132400F087237B73B12368DB680BB120469847B1
:1013340023681B69CBB9636804221968204600F04E
:10134400FBF9013610344C45EBD3B8F1000FE5D06E
:10135400002DE2D02846FFF771FF0546002FF7D095
:10136400002164200AF08CF9F2E72046984700280F
:10137400E1D00AFA06F31D43E3E7044CDFF81090CA
:1013840005464FF0010ADEE718110020681E010827
:10139400781E0108014B53F820007047941E010881
:1013A40008B5034608462BB1044A136000F062FCFA
:1013B400002008BD6FF01500FBE700BF0C00002003
:1013C40010B5044C237813B9034809F07DFC0123BC
:1013D400237010BD791800200C02002010B50446BB
:1013E40008480BF0AFFC5CB1BFF35B8F064B53E8CE
:1013F400001F013943E80012002AF8D1BFF35B8FC4
:1014040010BD00BF10110020141100200020064B55
:10141400BFF35B8F014653E8000F43E80012002A34
:10142400F9D1BFF35B8F70471011002070B5FFF73F
:10143400EDFF084C084E0546B44200D370BD636806
:101444005B792BB123685B6813B129462046984722
:101454001034F1E7681E0108781E010810B5044C29
:10146400044920460BF001FB034B1C6010BD00BF78
:10147400B8000020801E010808110020084A09480D
:1014840008B500231370084A1360084A4FF47A71B0
:101494001360FFF785FFBDE80840FFF7DFBF00BF1B
:1014A4007A18002063CD00081011002014110020C8
:1014B40001460022014800230BF0F8BAB8000020CE
:1014C40001480BF091BB00BFB8000020024B01465D
:1014D40018680BF0DBBB00BF0811002001480BF0BB
:1014E40011BC00BFB800002070B5254B1878002847
:1014F40044D0FFF7E5FF054690B1BFF35B8F214B66
:1015040053E8001F013943E80012002AF8D1BFF361
:101514005B8F1D4C1D4EB44226D32846FFF7D6FFE1
:101524001B4B1C4C1B68002B12DD0FF0ECFE0A2237
:101534000023FEF745FED4E90032C01A40F2E93335
:1015440061EB0201984271F1000101D3FFF76EFFD4
:10155400D4E9003213F57A7342F10002C4E900328F
:10156400BDE87040FFF7BABF63685B7923B12368B5
:1015740029461B68204698471034CCE770BD00BF4D
:101584007918002014110020681E0108781E010833
:10159400101100206807002070B50D4D297861B93D
:1015A4000120FFF7B1FE0B4C0B4EB44206D3FFF7FC
:1015B4009BFF0028FBD101232B7070BD63685B790E
:1015C4001BB1236820469B6898471034EDE700BFA1
:1015D4007A180020681E0108781E010800212DE9F0
:1015E400F0470846FFF790FE044658B34FF4FA78E4
:1015F4004FF0000910F0FAF81B4B1C4A1B581360FB
:1016040033B11B4B1B68092B02DD1A4809F05CFB44
:10161400194FDFF860A0002544B12046FFF70EFE05
:10162400044618B94FF0FF384FF0FF39FFF75CFF5D
:10163400064628B9B5B942464B46504609F06AFBFE
:101644003546E9E74FF0FF384FF0FF39D2E72B6812
:101654009B691BB100221146284698471035BD42AC
:10166400F5D3E8E7054DFAE7080000000C11002067
:10167400141100200C020020781E0108681E0108C5
:1016840013B518480BF05EFB174B1B787BB14FF07A
:101694001003EFF3118483F31288BFF36F8FFFF706
:1016A40023FF84F31188BFF36F8F02B010BD0F4B7B
:1016B4001B68002BF9D050B900220023CDE9002388
:1016C4000B4842F2107200230AF03EFAEDE70928B3
:1016D400EBD107480FF06AFE064802B0BDE810409F
:1016E40009F0F2BA141100207A1800200C1100201D
:1016F400700700200C02002010B5064B1B6804463E
:1017040098472146A06004480BF04EFABDE810400B
:10171400FFF7B6BF0C000020B8000020044A054BB8
:101724009B1AB1EBD30F34BF52F83100002070473D
:10173400601D0108681E0108084BC31A10B41B1170
:1017440044680133237143689A714368196043689C
:1017540001225A7110BCFFF733BE00BF681E010896
:101764002DE9F04F8FB0C1F34A2605900D469046FF
:1017740006930C0D002E50D0002709AB4FF0040B3C
:101784004FF00A0A0193CDF808B00BABCDF800A0D6
:101794003A4631464046CDE90B770D97FFF7AEFA4E
:1017A400B0F5006FB14603460CD3D8F8043040F2CC
:1017B400FF7200921D481E4A02210BF064FB0FB019
:1017C400BDE8F08FC0F30A0604F11700184420F0B6
:1017D400070080080793FFF76BFE66F35325044662
:1017E40080B1079B134ACDF808B000F11001CDE990
:1017F4000C3709ABCDE900A30B910BAB494640462E
:10180400FFF77CFA66F35325069B05992A46204682
:101814000FB0BDE8F04F0BF0D3BA04F1170020F07D
:1018240007008008FFF744FE0446EBE7681D010843
:10183400B224010899CD00082DE9F04F87B0DDE905
:101844001269DDE9105A04460F4693469846A6B33A
:101854001021CDF80090334652460020CDF8149064
:10186400FFF77AF8014605F117000844144B039179
:1018740004F007040BF0070BE40020F0070003EA70
:10188400412344EA8B1480081C43FFF711FE44EA09
:101894000554054640B13EB10399CDF80090334656
:1018A40052461030FFF758F8434622463946284638
:1018B40007B0BDE8F04F0BF083BA3146D3E700BF61
:1018C40000FE0F000EB403B503AB014653F8042B1E
:1018D4000448019302F0DCF802B05DF804EB03B0B5
:1018E400704700BFD7CE0008CA0605D48B064CBF8C
:1018F40002490349FFF7E6BF704700BFF22401081D
:10190400F12401082DE9F04F89B09A46DDE91473FA
:101914009DF84CB00593169B179E069204460D46FF
:101924000493BBF1000F00F0858006F008030793D1
:101934000BF02EFA06F002090246002849D0864927
:101944002046FFF7BFFF8046B9F1000F08D016F01C
:10195400440F40D181492A462046FFF7B3FF804413
:1019640006F0010353B17E4B7E4953F82B207E4B86
:101974002046002A08BF1A46FFF7A4FF06F0080312
:10198400002B54D0794B7A4953F82B202046FFF78B
:1019940099FF0546069B2BB176491A462046FFF768
:1019A40091FF0544BAF1000F05D073495246204611
:1019B400FFF788FF05444544002F49D1049B002BC1
:1019C4004FD1F30700F1C18031462046FFF78CFF69
:1019D400B5E08046B8E7694B18680028BFD0684B6B
:1019E4004FF47A791B68B5FBF3F54FF46161B5FBED
:1019F400F0F300FB135509FB05F54FF03C0CB3FB6A
:101A0400F1F201FB1231B5FBF0FEB1FBFCF300FB7C
:101A14001E550CFB131109FB05F50091B5FBF0F500
:101A24005849CDE901E52046FFF74CFF97E706F05A
:101A34000805AFE7BAF1010F06D1002F65D1049B69
:101A4400002B7CD000250CE0002FF8D04E485DE040
:101A54004E484F493B4622460AF046FC049B002B65
:101A640069D0DFF83081DFF83091049F3146102FC0
:101A7400204628BF1027FFF737FF4FF0000A5545CF
:101A840046DC059B49461A782046FFF71BFF4FF0BA
:101A9400010A1AF0070F03D141462046FFF712FF4F
:101AA40057453CD9059B494613F80A202046FFF7C1
:101AB40009FF0AF1010ABAF1100FEAD137492046A9
:101AC4004FF0000AFFF7FEFE5246059B9A5C344B2A
:101AD400995C11F0970F08BF2E2232492046FFF778
:101AE400F1FE0AF1010ABAF1100F1DD01AF0070F26
:101AF40003D141462046FFF7E5FE57455246E4D858
:101B040041462046FFF7DEFEEBE720485D46A0E7AE
:101B140041462046FFF7D6FE0AF1010AAFE7224903
:101B24002046FFF7CFFEC4E7059B3B440593049B87
:101B3400DB1B049399D1BBF1000F7FF442AF204625
:101B440009B0BDE8F04F0BF0B7B9074A0549204684
:101B5400FFF7B8FE38E700BFF9240108FD240108A7
:101B6400A41E01082D360108F4240108B81E01083A
:101B740022250108282501082C2501082011002010
:101B84001C110020062501080DCF0008D7CE00083F
:101B9400953A000839250108312501083B2501083B
:101BA400143901083D250108372501082DE9F041C4
:101BB4000F884B688E6886B005460C469046C7F37E
:101BC40082175BB1144A9B1A43F3CF01002920DB2F
:101BD4002078C0F3C200FFF7A1FD034621466088C8
:101BE40051F8102B0197C2F34A22002A01EB020498
:101BF400C0F30B1008BF00210022CDE90408CDE991
:101C04000214009231462846FFF77CFE06B0BDE878
:101C1400F0810023E2E700BF601D010873B542F2C2
:101C24000F738B4228BF0B4605680F4A04460521F3
:101C340068460AF05FF863680C495B6806460B2245
:101C440028460BF02CF963683246694628465B68DF
:101C54000BF025F9636806495B681B2228460BF0E4
:101C64001EF902B070BD00BFBA3201085C2501083C
:101C740040250108074A00210123904206D8064A5C
:101C840001B901231360054B1860704740085B00DD
:101C94000121F2E740420F001C1100202011002016
:101CA400014B00201960704738110020024B034893
:101CB40001221A700BF000B97C180020E81E0108FC
:101CC4000148FFF7ABBF00BFE81E010810B5064B83
:101CD40018680C46FFF75EFB21460346BDE810403A
:101CE40002480F22184700BF38110020E81E0108DF
:101CF400F8B5074F0D4604464618B44201D12846AC
:101D0400F8BD14F8011BBB6801485B689847F4E709
:101D1400B4190108014B036000207047F81E010844
:101D240007B5064A03469268054800920121054A10
:101D34000BF0A9F803B05DF804FB00BF38170020CE
:101D4400301E010808260108F7B507460E4614465A
:101D5400FFF7D2F9051E18DB3CB97B1E012B04D812
:101D6400022E17D0012E08BF0624F1B201ABA2B295
:101D7400B8B203F0D1FE061E0EDA2846FFF71AFAAF
:101D84000FF034FD0F4B76421E504FF0FF352846BE
:101D940003B0F0BD1124E8E7019800234360C36554
:101DA40060300EF0FBFF019878300FF07EFA062CBD
:101DB40002D101980CF069FB034A01992846FFF708
:101DC400E1F9E4E70C000000F81E010837B5069DB0
:101DD4000446E3B900930F49002200230CF013FDDD
:101DE40004F160000EF0DAFF04F178000FF05DFA00
:101DF400214605F160000EF0FDFF20460CF045FB86
:101E040005F1780003B0BDE8304009F069BC03B0C7
:101E140030BD00BF89CF00082DE9F04188B0DDE96D
:101E24000E580C4658EA0501109F064613D014F1CB
:101E3400690F02D014F10B0F0DD168460FF089FA27
:101E4400DDE9002313430ED114F1690F0CBF6FF0C9
:101E54000B046FF068040FF0C9FC2F4B64421C5054
:101E64004FF0FF304DE0B8F1FF3F08BFB5F1FF3F41
:101E74000AD0B8F1000F16D10A23B5FBF3F03B6882
:101E8400834294BF3B603860D6F8800008B10BF001
:101E940075F814F1690F0DD138680A21A0FB01010E
:101EA40009F0EEFB23E00A22002328464146FEF710
:101EB40087F9E4E70B341AD1B6F88A40C4F38114E5
:101EC400012CE9D196F98C000BF05AF830460DF04C
:101ED40073FF00220346022103A80FF0A1FB3A6816
:101EE4000A23A2FB0323214603A809F067FE3B68EB
:101EF4005B00642B28BF64233B60D6F8800018B9CC
:101F0400002008B0BDE8F0814FF0FF324FF0FF33FE
:101F14000BF032F8F4E700BF0C000000F8B540F213
:101F240003139942044600F08E80B1F5827F0ED2ED
:101F3400042923D0B1F5817F2BD0032919D00FF0C8
:101F440055FC6E4B5F221A504FF0FF3015E045F2FE
:101F54001B43994200F0C48045F22143994200F0AA
:101F6400BD8040F205139942E9D11368C0F880306E
:101F74000DE0C06DC0F340008003F8BD1268C36D6E
:101F8400550423F0020301D543F00203E365002066
:101F9400F3E7D2E900158B889768D8071BD52B681F
:101FA4009F4202D16FF00B00E7E704F160021A616F
:101FB4002B685A7B042060F305025A732B689A7BC2
:101FC4006FF345129A732B68DA686FF39432DA6010
:101FD4002B6814332B608B885A072CD5B4F88A30BD
:101FE400C3F38113012B02D06FF07700C5E794F996
:101FF4008C000AF0C5FF2E68B742D3D0B4F88A30FB
:10200400C3F34103012B20461AD10DF0D8FE3061F1
:102014002B685A7B022161F305025A732B689A7B61
:102024006FF345129A732B68DA686FF39432DA60AF
:102034002B6814332B60E36D13F0050FA7D0D3E79F
:102044000DF0BAFEE3E7D2E90056AB88DB070ED504
:102054003368DB6813F4FE1F02D1C36DDF0703D5B9
:10206400EB8843F00103EB80336814333360AB88AF
:1020740058071ED5B4F88A30C3F38113012B28D135
:1020840094F98C000AF07CFF3368DB6813F4FE1FBC
:102094000CD0E36DD90709D4B4F88A30C3F34103F3
:1020A400022B02BFEB8843F00403EB803368143344
:1020B4003360E36D5A0742BFEB8843F00803EB80BB
:1020C400E36DDB077FF563AFEB8843F01003EB8030
:1020D4005DE7EB8843F00403EB80EAE7C36D53E765
:1020E4000023146819461A460AF0ACFF6FF0004347
:1020F400984294BF2060236049E700BF0C000000B1
:102104002DE9F041114CDFF8488005460E4617468C
:10211400444508D30FF06AFB0E4B6A221A504FF065
:10212400FF30BDE8F0812368AB4200D063B9A368F7
:102134003A4631462846984730B1E3683A46314634
:102144002846BDE8F04118471034E1E7181D01089E
:10215400281D01080C00000013B5B0F88A30C3F341
:102164004103032B4FF00001044600914FF000029D
:102174004FF0000318D10CF09BFA04236360E36D65
:1021840043F00403E36520460AF03DFF204603F0D4
:1021940081FD031E0BDA0FF029FB064A5B42135044
:1021A4004FF0FF3002B010BD0CF02DFBE5E700202E
:1021B400F8E700BF0C00000037B501AA69460546E0
:1021C4000AF0CFFE044648B90FF010FB0D4B09226C
:1021D4001A504FF0FF34204603B030BD4FF0FF32A9
:1021E40001984FF0FF330AF0C7FE009B20469B681E
:1021F4009847044601980AF0C1FE2846FEF7DAFF24
:10220400E9E700BF0C00000037B505460C4619BBD2
:10221400B0F88A300091C3F34103032B4FF000025E
:102224004FF000030DD10CF043FA031E0CDA0FF04B
:10223400DDFA0E4A5B4213504FF0FF34204603B0E0
:1022440030BD0CF0E0FAF0E7EB6D43F00103EB6511
:1022540028460AF0D8FEF1E70FF0C8FA4C1E012C0C
:10226400024B94BF862216221A50E5E70C000000A8
:1022740013B5044603F036FD031E07DA0FF0B6FA71
:102284000C4A5B4213504FF0FF3006E0B4F88A303A
:10229400C3F38113022B02D0002002B010BD636887
:1022A400009305490023002220460CF0ACFA031EDB
:1022B400F2DAE3E70C00000089CF00082DE9F043CF
:1022C400B0F88A309146C3F34102022A85B004462D
:1022D40088463DD0012AC56D13D16B0707D54368E5
:1022E400002B35DD0FF082FA234A135004E00FF07F
:1022F4007DFA214B78221A504FF0FF3005B0BDE82B
:10230400F08315F00205C3F3811318BF1B4D426817
:1023140019BF0026002747F230560027012B19D198
:1023240000920023164900220CF06DFA031E03DA12
:102334000FF05CFA5B42D7E763680293CDE900676C
:102344002B464A46414620460CF030F9031EEFDB8B
:102354000020D3E702922B46CDE900674A460CF0F1
:1023640025F9031EE4DB636800930549002200237A
:1023740020460CF048FAE9E70C00000055CF0008AD
:1023840089CF000873B50D461646694601AA0AF0BE
:10239400E8FD0446B0B1009B9B69DBB101984FF0A6
:1023A400FF324FF0FF330AF0E7FD009B20469B69A4
:1023B400324629469847044601980AF0DFFD204634
:1023C40002B070BD09230FF011FA034A4FF0FF3435
:1023D4001350F4E75F23F6E70C00000013B504463E
:1023E4000CF08EF8031E08DA0FF000FA084A5B427C
:1023F40013504FF0FF3002B010BD00230549009484
:10240400002220460CF054F9031EEDDB0020F2E715
:102414000C000000D11D00082DE9F04F8FB01646C6
:102424004FF0FF384FF0FF390A225B06CDE90C89E3
:10243400189F0B9204460D4603D4C36D13F0020398
:102444004BD000220023CDE90C2308A80EF05DFF39
:10245400DDE90C2308A8DDE908890EF056FFDDE963
:102464000823CDE906236368009329490023002249
:1024740020460CF0C8F9031E36DB4FF0000A0DF1BC
:102484002C0BDDE90C236168002F37D0CDE9022342
:10249400199B04910093CDF804A03B46324629468B
:1024A40020460CF08BF9002825DADDE90C230146DF
:1024B400CDE90023CDF808B042464B462046FFF74D
:1024C400ABFC002817DBDDE9062308A80EF041FF6A
:1024D400DDE90823CDE90C23D3E70CAA052103F099
:1024E4004BFD0C4A0023B0E70FF080F90A4A5B4227
:1024F40013504FF0FF300FB0BDE8F08FCDE900234B
:1025040002913B463246294620460CF002F9CAE7BE
:1025140089CF0008A08601000C0000002DE9FF41CE
:102524000D46164602A903AA1F460AF01AFD0446E0
:10253400E8B1029B5B6A13B303984FF0FF324FF08C
:10254400FF330AF019FD0B9B01930A9B0093029B36
:102554002046D3F8248032463B462946C0470446E9
:1025640003980AF00BFD204604B0BDE8F08109236E
:102574000FF03CF9034A4FF0FF341350F3E75F23A5
:10258400F6E700BF0C0000002DE9F0474FF0FF33E1
:102594008CB015464FF0FF32CDE90A230A23099384
:1025A4006B0604460E4603D4C36D13F0020339D000
:1025B40000220023CDE90A2306A80EF0A6FEDDE9D9
:1025C4000A2306A8DDE906890EF09FFEDDE906234D
:1025D400CDE9042300270DF1240ADDE90A2302973B
:1025E400CDE90023314600232A4620460CF0C5F8E5
:1025F40000281EDADDE90A230146CDE90023CDF8DF
:1026040008A042464B462046FFF706FC002810DB94
:10261400DDE9042306A80EF09CFEDDE90623CDE9DE
:102624000A23DAE70AAA052103F0A6FC024A0023DA
:10263400C2E70CB0BDE8F087A086010073B50D4673
:102644001646694601AA0AF08CFC0446B0B1009B08
:102654005B6BDBB101984FF0FF324FF0FF330AF0B0
:102664008BFC009B20465B6B324629469847044608
:1026740001980AF083FC204602B070BD09230FF0D4
:10268400B5F8034A4FF0FF341350F4E75F23F6E73D
:102694000C000000B0B5D0F8803000AF04460A4604
:1026A40093B96D4688B06A461149C2E90510032101
:1026B40042F8101F0F484FF4C451FFF751F86FF060
:1026C4001500AD46BD46B0BD036E0BB10020F9E761
:1026D400D2E90023D0F88010783009F01FF80028E0
:1026E400F0DBE36D5B07F1D560684042EAE700BFC9
:1026F4002F260108301E01082DE9F34107468846BC
:102704001646FEF7F9FC051E16DBFB6D980719D477
:102714004FF0FF324FF0FF3369463846CDE90023CE
:10272400FFF7B8FF041E0DDA2846FEF743FD0FF04D
:102734005DF8384B64421C504FF0FF35284602B018
:10274400BDE8F0810022002307F1600008F088FA58
:10275400044640B92846FEF72DFD0FF047F82D4BEF
:102764000B221A50E8E760300EF05DFBA8B190F838
:102774003730990711D5E36D43F00103E36528462B
:10278400FEF718FD20460AF03EFC204603F082FACC
:102794000FF02CF81F4B7122E3E7B4F88A305A0586
:1027A4000ED50FF023F81B4B71221A502846FEF762
:1027B40001FD20460AF027FC204603F06BFABBE734
:1027C40023F40073A4F88A30B8F1000F0ED06EB170
:1027D4003268082A28BF082204F1280140460EF076
:1027E400CDFF238D012B07D1082333600A4A2146EC
:1027F4002846FEF7C7FCA1E7022B01D11823F4E712
:102804002846FEF7D7FC0EF0F1FF024B86221A5041
:10281400CFE700BF0C000000F81E01082DE9F04FBF
:1028240093B00646DDF870A002911F461546002AB3
:1028340052D0B0F88A30C3F38112022A40F0EC80FF
:102844004FF0FF324FF0FF337C06CDE9082303D469
:10285400C36D13F002032ED000220023CDE9082318
:1028640017F00203DDE9088906F16004019337D00B
:10287400102200210CA80EF0A9FF04238DF83D308E
:10288400109401214B4642460CA809F097F900F137
:102894000B010B29034618D8994A0A41D10714D4CD
:1028A40020460EF0BCFA044600BB0EF09FFF954B89
:1028B4000B221A500EE008AA042103F05DFB08A9BC
:1028C4003046FFF7E7FE031ECADA0EF08FFF5B42C5
:1028D4008C4A13504FF0FF35284613B0BDE8F08FF3
:1028E40042464B46204608F0BBF9DCE7D0E90398A2
:1028F400BAF1000F4ED01D9B002B4BD0B6F8883098
:1029040003931D9B1E680CF08DF994F83730C3F3C4
:102914000213AAF8003094F83730C3F30213012BE2
:1029240060D100234FF0140B072ECDE90C3B43D9A3
:102934000CA9204603F0A8FC064610B96FF0680302
:102944003CE00D9920460CF0C8F90028F6D194F823
:102954003A1020460CF0C1F90028EFD1F368CAF808
:1029640004309DF80C30062B3CD10CAB0AA9204650
:10297400CDE90A3B03F088FC0028DFD00388AAF8DD
:102984000230C4E90398BAF80030012B2DD1082392
:102994001D9A136020460CF0CCFA854228BF0546E8
:1029A400064602992A4620460CF059FA38B30EF02E
:1029B4001DFF544B692220E06FF015030EF016FF43
:1029C400504A5942C4E9039811504F4A4F480121D3
:1029D4000AF04FFA019B002B7FF47CAF20460CF0E9
:1029E40083F877E76FF08503E8E7022B01D118231A
:1029F400CEE70EF0FBFE434B86221A50EAE7019B1A
:102A04003BB920460CF070F817F0200F18BF35467C
:102A140062E7C4E90398F7E7012A6FD14FF0FF3862
:102A24004FF0FF39DA07CDE90A8907D5C3F341032B
:102A3400022B05D080230EF0D9FE49E70923FAE7DB
:102A44007C0602D4C36D990716D500220023CDE974
:102A54000A23029BCDE90735DDE90A2304A8CDE961
:102A64000C230EF052FCDDE9048907F4807B00247A
:102A7400089B4BB923460DE013F00503E9D10AAADC
:102A8400042103F079FAE4E7F26D12F0040307D0AD
:102A940073685B42002B23EAE37527DA5B42CAE7DB
:102AA400D207F7D4DDE90CA55AEA050311D13B4658
:102AB40008AA07A930460AF0C5FA044420430FD0F7
:102AC400BBF1000FD6D042464B460CA80EF041FC99
:102AD400CEE70CA93046FFF7DDFD031EE7DAD9E7A0
:102AE4005AEA0505ECD16FF00A03D3E7BB073FF5BB
:102AF400F3AE294630460BF0CAFEEDE60025EBE6C0
:102B04007EF7FFFF0C00000052260108301E01086A
:102B14002DE9FF410D46164602A903AA1F460AF0F5
:102B240020FA0446E8B1029B9B6A13B303984FF062
:102B3400FF324FF0FF330AF01FFA0B9B01930A9BFD
:102B44000093029B2046D3F8288032463B46294610
:102B5400C047044603980AF011FA204604B0BDE8C1
:102B6400F08109230EF042FE034A4FF0FF34135064
:102B7400F3E75F23F6E700BF0C0000002DE9F04FF8
:102B84009DB0834608A814461D4606910EF0BDFB71
:102B9400DDE908234FF00009CDE90423069FCDF8B1
:102BA4000C900DAB0A93DA464E46F7B9002E73D05B
:102BB400B5F1FF3F08BFB4F1FF3F4FF0FF3005D040
:102BC400A042AF4161D30A20B4FBF0F0069B019010
:102BD400009303985B464FF4827249460AF0A9F9C0
:102BE400074638461DB0BDE8F08FDAF8000000282B
:102BF40029DB0CAA0BA90AF0B4F9804618B30C9887
:102C04004FF0FF324FF0FF330AF0B6F91CAB0193DB
:102C14000AAB00930B9853464FF4817241460AF075
:102C240088F910F1780F034611D10022002308A877
:102C34000EF06BFBDDE908340C98CDE904340AF09E
:102C44009DF9002425460AF1080A013FADE713F176
:102C5400120F0C980BD1039B1BB10AF08FF90126BC
:102C6400F1E70B9B0393C1460AF088F9F7E7079352
:102C74000AF084F9079B002BE5DA0EF0B7FD5B42FE
:102C84003C4A4FF0FF371350ABE70A22002320469B
:102C94002946FDF795FA99E7DDE9042308A80EF023
:102CA40058FBDDE90845DFF8D08022462B460A9917
:102CB4000DAC091B891008FB01F1204608F07EFFCA
:102CC40000F10B020B2A0346D7D82C4F174117F0FB
:102CD4000107D2D1069D0A94B9465C4695B9B9F16B
:102CE400000F3FF47EAF002F7FF47BAFDDE90423B8
:102CF40008A80EF02EFBDDE908452B4625432246A5
:102D0400D5D16EE72068E68000282CDB0CAA0BA93D
:102D14000AF027F9824618B92023E380013722E01C
:102D24000C984FF0FF324FF0FF330AF025F90AAB4D
:102D34005146009340F2031223460B980AF0F9F827
:102D440082460C980AF01AF91AF10B0F0ED0BAF158
:102D5400000F04D00EF04AFDCAF1000390E7B4F965
:102D64000630002BDAD10834013DB7E74FF00109F2
:102D7400F9E700BF0C000000CDCCCCCC7EF7FFFF00
:102D840070B50C46062C11461A46049B30D004DC60
:102D9400A4B3012C05D06D2335E0292CFBD14329A4
:102DA4002DE0042914D00CDC022918D00329F2D117
:102DB400B0F88A10C1F381111B68042B22D1116071
:102DC4000BE00F2912D02629E5D1B0F88810F3E7DB
:102DD4001B68042B16D143681360002070BD0921C1
:102DE40003F0CAF80028F8DA43420CE00A21F7E7B6
:102DF4000129D0D1BDE870400CF0BEBF0129CAD171
:102E04000821EDE716230EF0F1FC024A13504FF0AF
:102E1400FF30E3E70C00000070B50D46062D1146A7
:102E240004461A46049B4DD005DC002D50D0012DDC
:102E340007D06D2331E0292DFBD11A2908D043296D
:102E440047E00F291FD005DC022915D00D29F0D148
:102E5400002070BD1929ECD1B0F88A10C1F3C2006A
:102E64000138012838D813B1C2B3107868B921F4F5
:102E74000061A4F88A10EBE7092103F02FF8002879
:102E8400E6DA434209E00A21F7E7082B26D1104687
:102E940002F008F9031E07DA5B420EF0A7FC114AA0
:102EA40013504FF0FF30D4E701F03CFEC0B102F004
:102EB400B5F8B4F88A3084F88C0043F40063A4F8BD
:102EC4008A30C5E70129B4D1BDE870400CF02EBFAB
:102ED4000129AED10821D0E76A23DEE71623DCE717
:102EE4001323DAE70C00000013B503461446084622
:102EF40069B162B1B3F88A20D1050AD480230EF0F7
:102F040075FC124A13504FF0FF3002B010BD162367
:102F1400F5E7C2F38111012903D1C2F34102022A68
:102F2400ECD11A8D012AF2D1ADF800205A8DADF8FA
:102F340002202268DB6A0193082A28BF0822694616
:102F44000EF01CFC082323600020DEE70C000000C8
:102F540037B503460846198C0129154603D15A6A28
:102F6400002401943AB90EF041FC0C4B16221A507D
:102F74004FF0FF3010E05B8CADF8023013682A6824
:102F8400ADF80010082A28BF0822694601930EF004
:102F9400F5FB08232B60204603B030BD0C00000075
:102FA4002DE9F047804600AF0C46002936D0E946AB
:102FB4008AB0D1E90012A3686D461C482E464FF032
:102FC400050AC5E90501C5E9072346F810AF184805
:102FD400324600234FF42151FEF7C2FBCD46D4E91B
:102FE40003126369AD461348C5F810A0C5E905018D
:102FF400C5E907230E48002332464FF42151FEF75A
:10300400AFFBCD46E3690C4A0948012109F031FFC1
:10301400A3690A4A0648012109F02BFF21464046CC
:1030240007F03CFABD46BDE8F08700BF74260108EE
:10303400581E0108A3260108D2260108E12601082A
:1030440030BFFFF7FDBF00BF114B124A2DE9F0411D
:10305400D518DFF84480013DB5FBF3F55D430F4B14
:1030640008EB0304013CB4FBF3F403FB04540E1B10
:1030740007460B4930460EF081FB70194246002189
:10308400083E0EF0A3FB7E6704F10800BDE8F08162
:10309400010000000000000008000000040000001F
:1030A400781E0108044B99685869884203D0034983
:1030B4004FF080520A6070473817002004ED00E09A
:1030C40070B5294C06460D46284829490AF07EF871
:1030D400A36AD9043CD5254826490AF077F8172075
:1030E400A36A1A0504D5214823490AF06FF8182069
:1030F4001D4CA36A9B0512D51C4820490AF066F8AA
:10310400A36BA26A100409D51D4A1848012109F0CD
:10311400B0FE1EB1A36A23F40043A3621920124C2B
:10312400A36A590504D5114816490AF04FF81A2024
:10313400A36ADA050ED50D4813490AF047F81B2097
:10314400094A936A43F47F43936200232B7070BD52
:103154001620C5E7A36A9B04F2D504480B490AF07C
:1031640035F81C20ECE700BF00ED00E0581E010814
:103174000F270108252701083627010849270108D8
:10318400622701087727010892270108AA27010866
:1031940010B5204C204921480AF018F8A36A990177
:1031A40036D51E481E490AF011F81E20A36ADA011A
:1031B40004D51A481B490AF009F81F20154CA36AC4
:1031C4001B0304D5154818490AF000F82120A36A06
:1031D400590304D51148154909F0F8FF22200D4C74
:1031E400A36A9A0304D50D48114909F0EFFF23207F
:1031F400A36ADB0304D509480E4909F0E7FF24203C
:10320400044A936A6FEA03436FEA1343936210BD5F
:103214001D20CBE700ED00E0D9270108581E010866
:10322400F1270108042801081E2801083C28010888
:10323400612801087B2801082DE9F843364D8046B2
:10324400894636483649174609F0C0FFAB6ADE06A0
:1032540027D53449314809F0B9FF1124AB6A1D0759
:1032640004D531492D4809F0B1FF12242A4DAB6A27
:10327400980718D52D49294809F0A8FF6E6BAB6A49
:10328400190646D52A4A25483346012109F0F1FD9D
:10329400B9F1000F03D0AB6A23F08003AB621324AF
:1032A40003E01024DAE76FF015061B4DAB6ADA076A
:1032B40004D52049194809F089FF1424AB6A9B06F8
:1032C40004D51D49154809F081FF1524124B9A6A4B
:1032D400D50602D49A6A90070AD55B68190507D502
:1032E4004146304600F00EFA10B180F309880224FA
:1032F400094B9A6A920642BF5A6A22F400525A62F1
:103304009A6A42F0FF029A6200233B702046BDE8AD
:10331400F8836FF01506C2E700ED00E0581E0108BF
:10332400A6280108BC28010836270108EF2801084F
:10333400072901081D290108AA270108F0B5604BD7
:103344005F688DB00446C7F30806002585F311882D
:10335400BFF36F8F02F07F43B3F17F4F07D102F0C9
:103364000C03082B13D15749574809F02FFF0025A8
:103374002C4600238DF80F30F31E092B00F28C80AD
:10338400DFE803F00A80847D8A8A8A8A8A881007A3
:103394004CBF0C460125ECE74C494B48484E09F01C
:1033A40015FF00238DF80F30F36A9A0705D54849B5
:1033B400454809F00BFF002334E0F36A002B01DADF
:1033C4004449F5E7F36A5B00F5D543493E4809F003
:1033D400FDFE7369A26943F480737361BFF34F8F79
:1033E400BFF36F8F736932F8022C23F48073736117
:1033F400BFF34F8FBFF36F8F4DF602739A420AD01B
:10340400B36ADBB26BB30DF10F0201212046FFF763
:1034140013FF034606E02368304A2B48012109F0D4
:1034240028FD23689DF80F20CAB904AE04F12007D3
:1034340020686168324603C20834BC421646F7D19C
:103444000B9A002D36D0C2F3080121B96FEA52223B
:103454006FEA42220B9204A91846FFF7A1FD0DB0B2
:10346400F0BDB36A13F47F4F05D00DF10F010120B5
:10347400FFF726FECDE7B36AB3F5803F9BD3FFF792
:1034840087FEC6E70DF10F020021BFE70DF10F0122
:103494000020EDE712498BE7124A134B17F4F87F2B
:1034A40018BF1346103E114A07480096012109F03F
:1034B400EAFC80E722F4FF7222F00102CAE700BFAF
:1034C40000ED00E06A290108581E01089529010849
:1034D400AC290108CD290108DB290108FA290108D2
:1034E400162A0108512901083C2901083A2A010831
:1034F400024A536943F010035361704700ED00E042
:10350400EFF30880EFF3098101B57246FFF716FF68
:1035140001BD00BF044800231021C2180133612BF0
:1035240082F80013F9D1704700E100E0102080F325
:10353400118808484FF40461401880F30988EFF3B8
:1035440014800221084380F31488BFF36F8F00F0C6
:1035540099F80000C0310020084B9B6883420BD1CE
:10356400EFF3058343B1064B5A6842F080525A6028
:103574005A6A22F400425A620DF053BE38170020F2
:1035840000ED00E0094A93686FF00A01D967084921
:1035940098674B6843F080534B60002383F3118892
:1035A400BFF36F8F9368D86F704700BF3817002040
:1035B40000ED00E015498A684FF030001044EFF345
:1035C400098C80E8F01F102080F31288BFF36F8FFE
:1035D4000F4F4FF000664A698A603E604FF07404F2
:1035E400141920680B4C2060906F0023936780F3BC
:1035F400118804B5104600F0EBF8BDE8044002F170
:10360400300090E8F01F8CF30988704738170020C9
:1036140004ED00E03C1100201EF0040F0CBFEFF39A
:103624000880EFF30980816911F8021C0229FFD098
:1036340001B509F0C0FD01BD40B2002807DB044A12
:103644004109012300F01F00834042F821307047F4
:1036540000E100E040B20028A8BF00F1604001F1A1
:103664000101B8BF064B4FEA0111ACBF00F5614040
:1036740000F00F00C9B2B4BF195480F800137047AA
:1036840014ED00E00F4A08B50F4B22F07F029A6058
:10369400BFF34F8FBFF36F8FD3F8882022F47002EB
:1036A400C3F88820EFF3148323F0040383F314880E
:1036B400BFF36F8F06F0A4FF08F056F8FFF72AFF58
:1036C40006F0F0FF0000000800ED00E042F8203CA6
:1036D400009B42F81C3C0A49019B42F8183C029B9F
:1036E40042F8143C21F001014FF0807342F8043C8D
:1036F40042F8081C0023203A02658367704700BF24
:103704005D100008094A0346906870B113F1160F62
:10371400406E05D0A0F140029A4205D8834203D2FC
:10372400814228BF002070470020704738170020CE
:1037340008B514460A4A0B4B9060426F1A600D4656
:1037440000F046F8204685F30988002163B681F32A
:103754001188BFF36F8F00220023FDF77DFC00BFAB
:10376400381700203C110020014910220A607047DC
:1037740010ED00E072B6404080F31188BFF36F8F04
:10378400BFF34F8F30BF62B6BFF36F8F704700BF78
:1037940001B5EFF30580A0F110004FEAC000044921
:1037A400014409C99847BDE801400249084700009F
:1037B400DC190108A9300008024B034A034801211F
:1037C40000F084B80080002000000020381F0108A9
:1037D400426E054B403A1A60044A4021C3E9011283
:1037E4001846012100F07CB84011002000000B15A0
:1037F400072808B5034607D90C480D4A012109F0EA
:1038040038FB6FF0150008BD0A48C0F898300A6804
:1038140022F01F021A4342F01002C0F89C208A686A
:1038240042F00102C0F8A0201846ECE7901D010800
:10383400512A010800ED00E0F0B50E4685B01F46A0
:1038440004460025B5420DDA606810B397B1431EF3
:1038540018420AD0104A11482B46012109F009FBED
:103864006FF01502104605B0F0BD1F28F2D921688B
:103874000B42EFD12368019309F0B0FCA36801A9BE
:103884000343D0B20393FFF7B3FF10F1160FE7D051
:10389400421C01350C34D5E7772A0108901D010834
:1038A400044B0522C3F89420BFF34F8FBFF36F8FEF
:1038B400704700BF00ED00E0BFF35F8F024B0022B2
:1038C400C3F89420704700BF00ED00E010B5034C2E
:1038D40001232278FFF7B0FF207010BD7D1800206F
:1038E40008B5094A00231278FFF7A6FF10F1160F56
:1038F40003D0064B0022072800DD08BDC3F898005A
:10390400C3F8A0200130F6E77D18002000ED00E0A8
:10391400F0B54F490868082885B000F29680FFF793
:10392400CBFF4C4C49680022904201F10C010DD1AF
:10393400494D4A4F28706846FEF7ECF900240646C4
:10394400A64216D1FFF7ACFF00202DE0C4F8982062
:1039540051F80C3C23F01F03134343F01003C4F845
:103964009C3051F8043C43F00103C4F8A030013208
:10397400DAE7009800EB04114FEA041CCB683B40E3
:10398400B3F5000F4FD011D8B3F5001F35D0B3F500
:10399400800F3DD0B3F5801F17D0314A3148012143
:1039A40009F05EFA6FF0150005B0F0BDB3F1807F49
:1039B40042D0B3F1007FF0D150F80C3088684A68E7
:1039C40009F00CFC40F4802009E050F80C308868C1
:1039D4004A6809F003FC40F0885040F4302003901A
:1039E40001A92878CDE90123FFF702FF0028D9DBDC
:1039F4002B7801332B700134A2E750F80C3088681F
:103A04004A6809F0EBFB40F0885040F40020E6E7F8
:103A140050F80C3088684A6809F0E0FB40F0E06038
:103A240040F40030DBE750F80C3088684A6809F04D
:103A3400D5FB40F08270D2E750F80C3088684A68B1
:103A440009F0CCFB40F08870C9E74FF0FF30ABE7DA
:103A5400441F010800ED00E07D1800200000F0FF85
:103A64009A2A0108901D010808B5024B1B68984763
:103A7400002008BD4C110020034B044A18609378C1
:103A840043F00203937070474C1100201000002093
:103A9400F0B587B007460E4614460021102268464A
:103AA4001D460DF093FE02238DF802302A46054B85
:103AB400019321466846CDE9047608F0B7F907B0CA
:103AC400F0BD00BF01D2000808B50649064821F040
:103AD4000701C1F1005202F5004208F0F8FD002090
:103AE40008BD00BFFF6600205011002038B54FF01C
:103AF4001003EFF3118483F31288BFF36F8F06F082
:103B0400F3FB0C49D1E90032C3180B4842F100051C
:103B14000A4A584302FB0500094DA3FB02325B1914
:103B240040EB0200C1E9003084F31188BFF36F8FCA
:103B340038BD00BF00000020E62EBB27FDB0B087D3
:103B44002DF304B5827A064B2C2101FB02339A6AC9
:103B54001B7F1B33801A23F00303B0FBF3F0704781
:103B64003C02002038B50A4B827A2C2404FB023331
:103B74000C685B6A5B681A68944294BF0C600A60C4
:103B8400D3E90054FFF7DEFF05FB004038BD00BF5A
:103B94003C0200202DE9F04385B0054668460391B8
:103BA40090461C460DF0B1FBDDE900674FF01003B1
:103BB400EFF3118983F31288BFF36F8F6B8B002BA4
:103BC40045D02A8B9A4229D900220023284607F09F
:103BD40047F8044610B389F31188BFF36F8F039B32
:103BE400002B45D032463B4668460DF0B2FB264DCD
:103BF400A37A2C2606FB035303A95B6A1B682046A1
:103C04001F68DDE90023B8476061002831D1A07A3C
:103C1400214600FB06500DF0F8F824E0698B4B1E9A
:103C24006B8389F31188BFF36F8F2B7F2A8BAC6A68
:103C34001B3323F00303521A02FB0344124B134AAF
:103C4400EB1A9B105343A3722B7FE372C7E789F3EC
:103C54001188BFF36F8F23464246284607F000F8C9
:103C640004460028BBD10024204605B0BDE8F083FB
:103C7400636100230122636022812382039A6369C2
:103C84006282E360F0E700BF3C020020A38B2EBAFF
:103C94002DE9F041164D044600262C270CB9BDE849
:103CA400F081237AD4F80480013BDBB22372002B29
:103CB400F5D1616959B1637ADB0707D4A37A07FBAD
:103CC400035320465B6A1B689B6898476661A07A29
:103CD400E66007FB005366601B6A1BB120469847E9
:103CE4004446DBE7214600FB07500DF08EF8F7E76A
:103CF4003C02002038B50B490B4D00200CF0BAFFF4
:103D04004FF0FF324FF0FF33284606F0A9FF044678
:103D14000028F5D00AF031F80028F1DA20460AF03C
:103D2400E3FEEDE7F72A01082402002070B5002A1B
:103D34002FD013686BB35868164A904229D19C68F7
:103D4400BFF35B8FDB68144BBFF35B8F99420FD1DA
:103D5400124D0121204609F0DEFE2B68CBB120462E
:103D64009B6898472B6820461B69BDE8704018473C
:103D74000B4B99420DD1094B196829B14B6909497B
:103D84002046BDE8704018472046BDE8704009F061
:103D9400C2BE70BDD8020020020001D05C11002018
:103DA400010001D0FE2A0108F7B58B6806460D46CE
:103DB400DBB933689F6897F8FC4114F001042FD0F5
:103DC4000DF1060128460BF053F8002828DBBDF856
:103DD4000620212A32D1A8680C3009F07BFA284643
:103DE4000AF020FF204603B0F0BD5B68E0E7188BC3
:103DF400904217D01C338B42F9D348F257039A42AE
:103E04000AD01ED848F221039A4205D048F253033F
:103E14009A4201D0572A03D12946304609F0C5FCFD
:103E24000224DFE75B682A46314638469847044651
:103E34000028D7D128460AF057FED3E7054B064998
:103E4400D9E748F2FD039A42E6D04CF221039A42A4
:103E5400E1E700BF281D0108601D0108014B186837
:103E6400704700BF5C110020014601480CF0C2BF3E
:103E7400240200202DE9F8430368204E9C68204F5B
:103E8400DFF8809005464FF40072002120460DF0C3
:103E94009DFC092384F8F1311B4BC4F8E8311B4B1A
:103EA400C4F8E051C4F8EC3104F5F27001F04EFCB2
:103EB40000254CF22108BE4208D3EDB28DB9144A54
:103EC4001448BDE8F843012108F0CABF338B4345C9
:103ED40008BFC9F80060204656F81C3B98470135D6
:103EE400E9E7084B1B680BB90B4AE9E794F8FC3186
:103EF40043F0010384F8FC31BDE8F883281D010870
:103F0400601D01085C110020313D0008030001D050
:103F1400072B0108E01D01082E2B01080022A0F840
:103F2400A41080F8A620024942670DF041B800BFF2
:103F340043D500082DE9F04F85B006460E9F904604
:103F44009B46894659B9002800F0EB8009F03BFAFA
:103F5400814620B96FF0720005B0BDE8F08FD9F842
:103F64000030BFF35B8FDB68BFF35B8F9B05F1D53C
:103F74006EB1B6F8A4A008F1FF33092B00F2CE808D
:103F8400DFE803F04E4E4E4E0707215C5257B2460F
:103F9400F1E74FF480638DF80C808DF80DB0ADF827
:103FA4000E30042506214FF47A720023CDE9002354
:103FB40000231A46484602F043F9044600284BD130
:103FC4006FF00B00C8E7304609F0EDF9BC68002338
:103FD40014BBB0F8F0509D4228BF1D46032D40F29B
:103FE4009D806BBA8DF80C808DF80DB0ADF80E3055
:103FF400A91C002CD7D008464FF47A72002302F093
:1040040035F8014610BB484A4848012108F028FF0A
:1040140020460AF069FDD3E7228A64681344D7E78F
:104024000F9B3C461D1DD9E70F9B03F10805002497
:10403400D4E738460AF07DFF051DF8E738460AF054
:1040440078FF0024851D4CF2210AC7E720460AF0B8
:1040540072FD20460AF0E6FD9AFA9AFA02220DF160
:104064000A012046ADF80AA00BF054F80028CFDB73
:10407400042203A920460BF04DF80028C8DBA8F160
:104084000708B8F1030F0DD8DFE808F002041C0795
:10409400002FBDD038460AF0C5FD2A4639462046D1
:1040A4000AF0F2FE94F8373043F0800384F8373096
:1040B4001EBB204609F061FE002821DA20460AF0E2
:1040C40013FD1DE0D6F8C8301BB1FFF70FFDC6F88D
:1040D400C800D6F8C810204609F05AF9002897DB22
:1040E400B6F8B8200F9B9A4228BF1A4652B994F8E2
:1040F400373043F0800384F837302046FFF7B4FEAE
:10410400002029E7042A3946204604D109F040F961
:104114000028ECDA7CE70AF0FDFFF9E76FF0150000
:104124001AE76FF0010017E7592B0108E01D010899
:104134002DE9F04385B09046044609F034F90DF1B9
:104144000A010646012240460AF089FE002832DBB5
:1041540001220DF10B0140460AF081FE00282ADB02
:104164000DF10E0140460AF083FE002823DBBDF862
:104174000E50B6F8F030AB421DD394F8A660012E71
:1041840019D99DF80A10043DADB24B1EADF80E507E
:10419400062B00F26C81DFE813F08D00210084000F
:1041A40017013D011D010700012203A940460AF041
:1041B40056FE002801DA02205BE001220DF10D0118
:1041C40040460AF04CFE0028F5DB94F8A630072B95
:1041D4004ED10621204609F0A5FC49E09DF80B606C
:1041E40094F8AD30B342E6D194F8AE30DB07E2D4B4
:1041F400236B0BBB94F8AE2042F0010284F8AE208E
:1042040094F8A6200021023AC4F88010072AD2D8D4
:1042140001A353F822F000BF7D4200087D4200084C
:10422400BB410008BB410008994200084B4200080A
:104234005B420008914200082A46414620469847BE
:104244000028D7DAB7E720460CF0C0FE002120464C
:1042540009F0EEF8BDE720460CF0B8FE092120462F
:1042640009F060FC0A23A367E36C0BB1204698476E
:10427400002005B0BDE8F083CDE900113346D8F83D
:10428400181006222046FFF755FEF1E7204609F0F4
:1042940071F8DBE70721204609F044FC0A23A367F1
:1042A400E6E79DF80B20009543460321204609F0DC
:1042B40008FADEE7023E9DF80B70072E3FF67BAF4F
:1042C40001A353F826F000BF2F440008F34200086E
:1042D40075420008754200080343000803430008C0
:1042E40003430008ED420008204609F043F800218A
:1042F400204609F09DF80621204609F013FC4FF4EE
:104304007A720023CDE900230023D8F818001A4656
:10431400A91D01F095FF814600283FF44CAF0AF037
:1043240081FC266CAEB34B462A4641462046B04734
:10433400061E03DA48460AF0D7FB3CE7E36F042B7A
:1043440002D9032E08BF0426D9F80830F6B2002596
:10435400DBB93B46CDE90095324600212046FFF704
:10436400E9FD022E94F8A63022D1072B1BD120465A
:104374000CF02CFE0921204609F0D4FBE36C0BB1B0
:10438400204698470023E36772E71A8A5B6815445E
:10439400DEE735B12A46414648460AF075FD042653
:1043A400D7E70226D5E70821204609F0BBFBE9E759
:1043B400072B03D00621204609F0B4FB032E7FF41B
:1043C40057AFE36F0133DEE79DF80B2000954346BA
:1043D40004216BE7043E052E3FF6EDAE01A353F82E
:1043E40026F000BF0144000815440008BB41000842
:1043F400D7410008BB41000891420008022520462D
:104404000CF0E4FD2946204609F08CFBA36D2CE753
:104414000325F4E7082E9DF80B700BD8062E7FF6C3
:10442400CAAE0621204609F07DFB0023CDE9003306
:104434003B4624E7092E7FF4BEAE45B11F2D2A4624
:1044440004F1840128BF1F2240460AF008FD00231E
:10445400A3670521204609F065FB204608F08AFF82
:1044640047F230520023204606F024FEDDE7656E55
:104474009DF80B205DB90023CDE9008307229DF848
:104484000B30D8F818102046FFF754FD93E6434646
:104494002046A84702287FF4ECAEECE738B500F1DB
:1044A4003805B0220446002128460DF08FF94CF25D
:1044B40021012846FFF732FD4CF2210000F048F9B3
:1044C4000146284609F035FBD4F8E0310BB11B68EE
:1044D4001B8BA4F8F030084BC4F88430074BC4F8A5
:1044E4008830074BC4F88C30064BC4F89030064B28
:1044F400C4F89C3038BD00BF6BD8000873D80008DE
:1045040065D800085FD8000829D800082DE9F047CD
:104514008AB006460C461546002116220DF11200FB
:1045240098460DF053F9BDF84830ADF81030139BA0
:104534000593149B069302AF159B0793D4E903A933
:10454400154B00972A4621463046CDE9026809F00A
:1045540030FA002804DA6FF015000AB0BDE8F087DD
:10456400099BABB9C4E903A90C4B00972A46214621
:10457400304609F01EFA0028EDDB089B53B9C4E964
:1045840003A92A46214640460AF07EFC0220E4E7BD
:104594000420E2E70320E0E757D90008ABD800087D
:1045A4001FB5054B039302AB0093044B029009F033
:1045B40000FA05B05DF804FBFBD800080DD900082B
:1045C4001FB5054B039302AB0093044B029009F013
:1045D400F0F905B05DF804FBFFD800080DD9000818
:1045E4002DE9F0410321044609F095FA1C4D1D4EB6
:1045F40048F2FD07B54212D3194D48F2FD0748F2BF
:104604005308B542D4F8F43116D33BBBFFF726FC6C
:1046140020B3436914492046BDE8F04118472B8B69
:10462400BB4203D048F25302934203D12B690BB12E
:10463400204698471C35DDE72A8BBA420CD0424508
:104644000AD0B2F5404F07D22A692AB10133C4F81F
:10465400F4312B69204698471C35D2E7BDE8F08138
:10466400281D0108601D0108732B0108F8B50121FC
:10467400054609F050FA0221284609F04CFA28466A
:10468400FFF7AEFF074C084E4CF22107B44200D3AB
:10469400F8BD238BBB4203D0A3680BB128469847CF
:1046A4001C34F3E7281D0108601D010810B5D0F87B
:1046B400F831013B002B0446C0F8F83108DCFFF761
:1046C400CDFB28B1436903492046BDE81040184793
:1046D40010BD00BF8D2B01082DE9F041174D184E78
:1046E400DFF8608004464CF22107B5420DD3D4F8BC
:1046F400F431002B04DD144A1448022108F0B9FBFC
:104704000023C4F8F431BDE8F0812B8BBB4212D0F6
:10471400EB680BB1204698472B8BB3F5404F0AD278
:104724006B6943B1D4F8F431013BC4F8F4316B69DB
:104734004146204698471C35D7E700BF281D01088D
:10474400601D01089F2B0108A82B0108E01D01082A
:1047540000487047F324010870B586B004AD039592
:10476400012502950A4D019548F221050026009580
:10477400CDE904660446FFF7C9FE022805D19DF879
:10478400103013B1059BC4F8BC3006B070BD00BF37
:10479400701F010838B500F584750446B022002165
:1047A40028460DF013F848F221012846FFF7B6FB1E
:1047B40048F22100FFF7CCFF0146284609F0B9F979
:1047C400114BC4F8703104F5E873C4F87431032351
:1047D400C4F878310D4BC4F854310D4BC4F858313A
:1047E4000C4BC4F860310C4BC4F864310B4BC4F867
:1047F4003C310B4BC4F848310A4BC4F844310A4BE2
:10480400C4F84C3138BD00BF7C1F01083148000892
:1048140031DC0008BBDB000851DB0008B5DB000815
:104824005D47000869DB0008C54500082DE9F04133
:1048340084B090F8F43013F0080600AFA0F5847546
:1048440023D100F1B00410233A462146012000F0A0
:1048540029FD334680460322D5F8E001214600F0C5
:1048640067FA0346A8B96C4688B06A460E49C2E99D
:1048740005184FF4007191830C4942F8101F0C483D
:104884004FF4E251FCF76CFFA5461037BD46BDE876
:10489400F0812121284609F022F995F8FC3143F0F2
:1048A400080385F8FC31F0E7D32B0108030000016D
:1048B400E01D0108036804481BBA1B0C1B041B1AE7
:1048C40058425841704700BF0000FEA970B54FF030
:1048D400FF3305464FF0FF32184809F02FFB184B01
:1048E400196879B10A684FF0FF334FF47A7659B9F1
:1048F4005A1C1BD113480CF069FBBDE870400F48EB
:1049040009F04BBB0A46EEE7CC69098C641B06FB35
:104914000141002909DD8B4228BF0B461AB11068FA
:1049240011460246E3E71046FAE700230A22A3FBF6
:104934000223044806F0BEFBDFE700BF7801002035
:10494400B0110020280800202DE9F04105468846D2
:10495400164609F0F5FA6C68002C39D062691D4BD3
:1049640013401D4A93424FF000071AD12388012BAC
:1049740017D1221D1046FFF79DFF90B908F1FF30B3
:1049840003343B4610F8011F14F801CF61450FD1E1
:104994000833DBB2202BF5D13178994201D833703A
:1049A400174605F1140009F0F8FA3846BDE8F0811D
:1049B40081EA0C010806EFD403F10800C0B2013308
:1049C400DBB249009842C9B2E6D00C06E4D4F6E75B
:1049D4002746E6E700FF0200000102002DE9F04748
:1049E40009F090FA244E80464FF0FF3223484FF0EE
:1049F400FF3309F0A3FA34682CB1002527684FF47B
:104A04007A7AA9463CB94046FFF760FFBDE8F04713
:104A14001A4809F0C2BAE369218CA3EB08030AFB24
:104A24000133002B224619DCA388012B06D1A1698E
:104A34001348102304F1080200F0A8FE23689DB96E
:104A440072683360944200D1736094F82230C4F8E1
:104A5400009069F3000384F822302A4657B13B687A
:104A64003C4615461F46CDE72B6073689C4208BF41
:104A74007560EAE73B46F3E7B011002078010020B7
:104A8400060004E010B5036800219A7E044609F08C
:104A94005EFA68B9216802238B762068817E994288
:104AA4002BD01C4A1C48BDE81040012108F0E1B994
:104AB4000921204609F04BFA0028EBD00A212046B0
:104AC40009F045FA2168C0F10603DBB28B76206851
:104AD400817E9942E5D106290FD1062A18D00821F2
:104AE40009F04CFA00230D481A46214600F04EFE08
:104AF4002046BDE8104009F035BA062A08D108213D
:104B04000C3009F007FA002305481A462146EDE760
:104B140010BD00BFF82B0108D01D0108020001D010
:104B2400010001D0002809DD431E0548282202FBAC
:104B34000300044B984228BF0020704700207047B0
:104B440094020020BC020020054B064A934205D083
:104B5400054A1068002808BF1846704700207047AF
:104B640094020020BC020020B811002038B504468D
:104B74000D4609F0E5F90621204609F0E8F910B3DD
:104B8400636843B105B12B60002504F1140009F0FA
:104B940004FA284638BD4FF0FF324FF0FF330B487C
:104BA40009F0CCF90A4BDA6B3AB96360DC6305B1FE
:104BB4002B60064809F0F1F9E6E7044809F0EDF93D
:104BC4006FF00205E1E76FF08505DEE7780100206C
:104BD4007011002070B50D4668B1BDE8704009F051
:104BE4008BBA2946204609F087FA18B92834B4420A
:104BF400F7D3002070BD014C014EF8E79402002069
:104C0400BC02002070B5094C094E0546B44203D3DA
:104C1400BDE87040FFF798BF2946204609F04CFADA
:104C240008B92834F2E7204670BD00BF9402002082
:104C3400BC0200202DE9F3410023054608460F4637
:104C44008DF80730FFF736FEE8B9BDB10DF1070264
:104C54002846FFF779FE04460BE030460DF10702C3
:104C64003946FFF771FE2836002818BF044646452A
:104C7400F3D3D4B1204602B0BDE8F081154EDFF87D
:104C840058802C46F3E725B10121284609F051FA52
:104C9400E1E7FFF759FF012109F04BFA0446002828
:104CA400E8D10C4E0C4FBE420BD30121284609F02B
:104CB40043FA04460028DDD102B0BDE8F04100F01B
:104CC400D7BC0121304609F034FA04460028D1D17A
:104CD4002836E8E794020020BC020020F8B5124C04
:104CE400124F06460D46BC4201D3002419E020466B
:104CF40009F026F9636804F114001BB909F04DF9B1
:104D04002834F0E79A7D9207F8D51A88012AF5D15C
:104D1400326859689142F1D105B12C601C4609F002
:104D24003CF92046F8BD00BF94020020BC020020DC
:104D34002DE9F34106460F4690461D4609F000F959
:104D440001A93046FFF712FF002833DB7468A37D06
:104D54009A0703D53A6863689A420AD0B8F1020FF9
:104D6400019C02D1237D042B02D0A37D9B0721D477
:104D74003CB906F1140009F010F9204602B0BDE870
:104D8400F081A37D0C48012243F00203A375228025
:104D94003B68A17D6360B5FA85F35B0963F30001A9
:104DA4000423A175627584F81480E218314600F07A
:104DB400EDFCDEE70024DCE7010004E070B5044606
:104DC4000E4609F0BDF862680AB9002511E0937D2A
:104DD4009907C3F340050CD5306851688842F4D173
:104DE4006FF341039375042305481A44214600F0E8
:104DF400CDFC04F1140009F0D0F8284670BD00BFC2
:104E0400020004E0F8B5164C164F06460D46BC42A7
:104E140007D245B12B6833B1A34204D02834BC4235
:104E2400F8D3002419E0204609F08AF8636804F1F5
:104E340014001BB909F0B1F82834E8E793F82C20E2
:104E4400D207F7D51EB1D96932689142F2D105B1C2
:104E54002C6003F1180409F0A0F82046F8BD00BF47
:104E640094020020BC020020F8B54FF0FF33054641
:104E740017460E484FF0FF320E4609F05FF80C4B10
:104E84001B680BB11C6823B9BDE8F840074809F05A
:104E940084B85B683A463146284698471CB1226874
:104EA40023461446EFE72246FAE700BF78010020C4
:104EB400681100202DE9F04186B0002300AFC7E956
:104EC400013305460C46B1B3264B1B688BB1C96A46
:104ED40094F8306069B1082E0BD807F10E03184618
:104EE40032467E730CF04AFC94F8313078603E729E
:104EF4007B7209212846D4F8148009F028F8034667
:104F0400E8B1284608F0EFFF214643682846984751
:104F1400061E02DA204609F0E7FDB8F1000F03D0BF
:104F24003146404608F0E4FF7B6823B13246391D20
:104F34002846FFF799FF1837BD46BDE8F0816E4655
:104F440088B06A460849C2E90515032142F8101FD2
:104F540006484FF4C451FCF703FCB5466FF07206E3
:104F6400D8E700BF681100201A2C0108D01D0108E1
:104F74002DE9F041054600AF4E690C4608F0E0FF0C
:104F84000921284608F0E3FFD8B9E84688B06A4604
:104F9400204BC2E90535032342F8103F1E48002385
:104FA4004FF4C451FCF7DCFBC5462EBBE36A4BBB94
:104FB400022405F1140008F0F0FF2046BD46BDE8C8
:104FC400F0810421284608F0C2FF0028DDD1012128
:104FD400284608F0BCFF48B9636A3BB9A3691A685C
:104FE400126962621B681B7D84F8283021462846BA
:104FF40009F0AEF80024DCE76FF07201304608F0E7
:1050040077FFD3E76FF0720204F12C012846FFF713
:105014002BFFCDE71A2C0108D01D0108074B98423D
:1050240008D3074A904205D2C01A064BC010584311
:10503400013070474FF0FF30704700BF94020020EA
:10504400BC020020CDCCCCCC38B5054608F078FFA6
:105054000021284608F07BFFF0B9284608F043FFFA
:10506400044630B1846824B101212846A047041EB7
:105074000CDB2868002108F081FF002308481A4649
:10508400294600F083FB2846FFF7FCFC05F11400D9
:1050940008F083FF204638BD6FF07704F6E700BFC1
:1050A400040001D070B50546B8B10D4C0D4EB442A4
:1050B40002D36FF0010070BD2846FBF7EBF92946D7
:1050C400024604F108000CF0F9FA20B92046BDE8C4
:1050D4007040FFF7A3BF2834E9E76FF01500EAE753
:1050E40094020020BC0200202DE9F04786B051480C
:1050F400514CDFF84881DFF84891524E4FF0FF32AF
:1051040002AF4FF0FF3308F019FF0AF033F800251F
:1051140044450DD3002D71D14B4A4A48012107F073
:105124009FFE444808F039FF1037BD46BDE8F087BC
:1051340020680368D3F808A0BAF1000F03D0DAF8A6
:105144000030002B4ED1EA4688B002AA0323C2E9FC
:10515400059442F8103F00234FF4C2513046FCF747
:10516400FFFAD5460023C4E9023323742046C7E975
:1051740001333B7308F0B7FE344B834205F101055C
:1051840008D1334A1368591C1160381D314A08216B
:1051940006F0B0FD3B7943B92F4A1368591C1160DE
:1051A400381D2E4A082106F0A5FD391D204609F0B8
:1051B40005F8011E14DA2046FFF730FFEA468AB0EC
:1051C40002AA274BC2E905300523C2E9074142F888
:1051D400103F00234FF422513046FCF7C1FAD54664
:1051E400283495E7062108F0C9FE04F114000BF0F9
:1051F4005CFDDAF8003020469847B3E7012D0BD068
:10520400184A104800950123022107F03CFE164A73
:105214000C48022107F024FE144B1549154840227E
:1052240083F838200BF0C4FE134B0022C3E900229C
:1052340077E700BF7801002094020020BC02002020
:105244002B2C0108D01D0108882C0108D80200204D
:1052540064110020492C0108601100204F2C010822
:10526400552C0108B42C0108F12C01087011002000
:10527400E149000828080020B011002038B5074C87
:10528400074DAC4200D338BD0321204608F05FFE31
:1052940010B92046FFF7D8FE2834F2E79402002024
:1052A400BC0200202DE9F04F89B000240228CDE98A
:1052B400064483460E4602925FD10B6804913BB9C3
:1052C4004A6852B94C894FF6FF73E11A4C424C417B
:1052D40006A801460022134608E01C46F8E70D78AC
:1052E400013301350D70DDB2082D03D036F81350AB
:1052F400002DF4D00132082A01F10101EBD14FF065
:10530400FF374FF0010A002310F8012B524588BFE4
:105314005FB203F10103DBB288BF9246082BF3D1DD
:1053240099463A220023CDE90023BAF1010F08BFC0
:105334004FF0FF370298002200252B46B9F1040FE5
:105344005ED10199C95C034641BB302103F8021BBD
:105354000099417018460135EDB24D452B46EDDB01
:10536400029B98420BD0BBF1010F4FF0000340F0B9
:105374009C8000F8013C029802E0012803D0002040
:1053840009B0BDE8F08F2E2301914FF0040900937A
:105394004FF0FF37824604942646CBE74FF0000CCB
:1053A400CDF814C0DFF808C14FF00908B1FBFCFECA
:1053B40003910CFB1E11DDF814E0C64503DCDDF897
:1053C4000CE0E64509D3DDF80CE0BEFBFCFE0EF173
:1053D400300E03F801EBCDF8148008F1FF38B8F172
:1053E400FF3F4FF00A0EBCFBFEFCDFD14FF0000183
:1053F40019701B1A50FA83F0009B00F8013BAAE7CE
:1054040074B1052D0CD906F10C0301933A2300F86D
:10541400013B2E234FF0040900934FF0010B8BE75F
:105424009F420DD102B915B93A2300F8013B3A2342
:1054340000F8013B0AF1FF332B44DDB200228AE776
:1054440012B13A2300F8013B049B33F8152052BAF9
:1054540012F47F4FC2F307235FFA82F816D00F2BA2
:10546400D9B20AD90023612208F0C0FE01236122C7
:10547400414608F0BBFE01226DE7092B04D8303108
:10548400C9B200F8011BF1E75731F9E7B8F10F0F82
:10549400EDD8B8F1090F94BF08F1300808F15708A6
:1054A4005FFA88F800F8018BE5E7037063E700BF53
:1054B40000CA9A3B10B4084B1A6801321A60074CB0
:1054C400032392FBF3F303EB4303D21A282303FBD6
:1054D400024210BCFFF7E6BEBC1100207E1800207B
:1054E40001282DE9F7430C46164626D10846FAF75B
:1054F400D1FF23462044984212D13546002345F873
:105504000139033620460A2201A906F01FFC05F8DA
:10551400010F019CAE4204F10104F3D1002009E023
:1055240013F8012BA2F130010929E4D92E2AE2D083
:105534006FF0150003B0BDE8F0830228F8D12E21E6
:1055440020460CF0AEF8237800280CBF0827062765
:105554003A2B08BF01342046FAF79CFF4349002246
:10556400824223DB0025A8462378002BE0D03A2B87
:1055740041D010220021204606F0E8FB102281468B
:105584000021204606F0E2FBC9F3072949EA002975
:1055940026F815903A2120460CF083F8D8B1441C23
:1055A4000135AF42E0DC062FB8D13EE0A35CA3F1A5
:1055B4003005092D09D9462B09D82D2BB8D92E3BF6
:1055C400DBB221FA03F3DB07B2D50132C8E7613B52
:1055D400052BFAD9ACE77B1EAB42A9DC0135BD42F1
:1055E400A6DB062F9AD1A3E706EB450306F8158040
:1055F40083F801800135BD42F6DB3A2120460CF0E8
:105604008BF8A04229D1062F0ED06378002B85D0C9
:105614007D1E013010F8013D3A2B01D1013D87D3A5
:105624008442F7D10134BBE701340B3600252378DB
:10563400002B3FF47DAF00210A22204606F086FBB2
:105644002E2106F8010F20460CF02BF850B101353D
:10565400042D00F10104EAD160E7062F08BF00F130
:10566400FF30D5E7032D7FF463AF57E70110F8014E
:1056740000487047B01F010800487047AC1F01087C
:105684002DE9F347DFF8B890DFF8B8804FF0FF3228
:105694004FF0FF336946484605F0D2F90546002825
:1056A400F4D1294E4FF0FF324FF0FF33404605F05E
:1056B40021FA346814B12768AA462CB9404608F088
:1056C400D1FE05F05BFFE1E70099A06881EA0003E1
:1056D40081EA0002C3F30173C2F30A4213431DD1EA
:1056E4008BB22BB183B21BB101EA00039BB2ABB105
:1056F40000016368019A1CD5986908B190420DD1E4
:10570400A1609A61226875B9736832609C4200D1C5
:1057140072606068C4F800A005F0D6FA6FB13B6807
:105724003C461F46C9E72A6073689C4208BF7560FF
:10573400EFE7204698472546F0E73B46F0E700BFF1
:10574400DC010020A0010020C811002010B504468F
:105754004FF0FF324FF0FF33094805F0CBF9094B06
:105764001A6822605A681C6002B95C60064AA36821
:10577400116803480B431360BDE8104008F072BE83
:10578400A0010020C8110020D011002038B5184B0A
:105794001B680D46020F010C22EA137221EA134121
:1057A40002F00302C1F30A0120EA03030A439BB295
:1057B4001A4304461AD14FF0FF324FF0FF330D481D
:1057C40005F098F90C49C1E900450C48642200230E
:1057D40005F0E0F828B10A4A0A482346022107F0F6
:1057E40048FBBDE83840034808F03CBE38BD00BF64
:1057F400D0110020B4010020C0110020DC010020E1
:10580400662D0108E81D010810B588B00D4C0E493D
:1058140000220023CDE9062300234FF0FF32CDE917
:105824000323CDE9013300934FF44872074B20461C
:1058340005F038F80649204608B0BDE810400BF0E2
:1058440019BA00BF5808002080200020855600089F
:10585400EA2D0108F0B5294C9DF814C00026B4F8CF
:105864008A50EF0742D5B4F8887087423ED1678CDE
:105874008F423BD11788012F38D1676AB7B3B4F888
:1058840020E0BEF1010F31D13F6827B1D2F804E026
:10589400BEF1000F17D1BCF1000F04D094F886E0DC
:1058A400BEF1000F22D15BB1C5F3811EBEF1010F21
:1058B40003D1C5F34105032D02D0BFB95568ADB975
:1058C4006FF0100018E0BE4510D1BCF1000F02D0FB
:1058D40094F8867057B9002BF2D0C5F38115012DC9
:1058E400EED1256C95F820520A2DE9D10136062E09
:1058F40004F19004B3D10020F0BD00BFEC110020EE
:10590400F7B50B4F04460D460026FEF7EFF840EAC4
:1059140007035BBA009699B294F8880000232A46DC
:10592400FFF798FF1130F0D0084603B0F0BD00BF78
:105934000080FFFF2DE9F74F06461446B6F88A208B
:105944009DF83C00D7070D460C9940F1DB8028B147
:1059540021B94BB95DB96FF0780465E0002BFAD03A
:10596400C2F3C20001281CD06FF015045CE0C2F33E
:10597400C203012BF8D1D5E90031002B48D1F36AD9
:10598400002BE8D0A8460CBBD8F80C1023468B4259
:105994001CD0D8F8082002EBC30201335268144427
:1059A400F5E74FF000080729DED959680029D2D05D
:1059B400F16A41B9110506D4181DFFF723F9FFF761
:1059C4002DFB86F88C00B8F1000FDCD196F98C0021
:1059D400FFF7A8F8F0B996F98C0042F2107A4FF06C
:1059E400000BFFF79FF8B6F88A20CDE900ABC2F3AD
:1059F400C20296F88830214600F022FC074600BB1C
:105A0400424A4348012107F02BFA6FF068040BE087
:105A1400A846C8E70368BFF35B8FDB68BFF35B8FFF
:105A2400DA0705D46FF07204204603B0BDE8F08FA6
:105A34000368BFF35B8FDB68BFF35B8FDB05CAD4FE
:105A4400F0E7466196F8881009F091F8844203461D
:105A540012D80D9BB3630E9B7360B6F88830062B87
:105A64004DD1B8F1000F46D129462246384609F0F7
:105A740051FB051E0EDB2DE0B6F88A20C2F381121D
:105A8400022A0CD1234A22480094012107F0FBF991
:105A94006FF00B05384609F027F82C46C4E7044696
:105AA400D7E7D8F8081001EBC9023846526851F814
:105AB4003910524528BF5246934609F02BFB051E68
:105AC400E8DBBAEB0B0A05D009F10109D8F80C2080
